:020000040000FA
:020000000528D1
:040002000034003492
:08000800382C142483120313A9
:100010008B20BD208E018F010C1083160C148312CF
:100020000B178B1714289E208601051086191B2894
:1000300006192E281428A1138614C301C101043007
:1000400081008B164308A900BD20061A6528051AF1
:100050006528851F652821186E282228A11F4408BD
:10006000A11B4508A900BD20061D1328851A452897
:10007000051B5628861B3D282E28A924861B2E28C2
:10008000A11706149A2406102E28A924851E2E28AE
:10009000A11B5028C83044060319C401C40A2E28E5
:1000A000C83045060319C501C50A2E28A924051F15
:1000B0002E28A11B6028C40B2E28C830C4002E286F
:1000C000C50B2E28C830C5002E2886018B122110A2
:1000D0000614861D692800009A24142886108B12A5
:1000E00021100514C301C101043081008B1644089E
:1000F000B8004508C4004308A900BD202118812884
:100100007B2805108B122110C301C1013808C400DF
:10011000A900BD201428831600309B001C141A0867
:1001200083120313C400831601309B001C141A08A9
:1001300083120313C500A1152116080083169C180D
:100140009F281C1500309B008312440883169A00D8
:1001500055309D00AA309D009C149C18AD281C159C
:1001600001309B008312450883169A0055309D008C
:10017000AA309D009C14831208006430CA20002419
:10018000A7000A30CA200024803EA60029080024C7
:10019000A5000800B001B00AA902031CAA03AA1F07
:0A01A000CB28A907AA0A30030800C3
:100800008A010A150F3982073F3406345B344F34AE
:1008100066346D347D3407347F346F3400340034F3
:100820000034003400340034831203138301850143
:1008300086018A0100308B00013090000030970063
:10084000980107309F00831687308100F0308500C3
:100850009C3086008C01831203130030A100C40079
:10086000C100C300C4000830C20004308100080089
:10087000F000030E8301F1000A08F2008A01040867
:10088000F300740884000C18572C0B11C10A0311D3
:1008900041084206031D542C4D2CC30A0311430882
:1008A000440603192114C101043081008E2C8612E4
:1008B00005110830B90006170613B90B5B2C280880
:1008C000A81C6A2C8616061706138612061706132E
:1008D00006170613281C722C861606170613861296
:1008E00006170613031D772C861606170613083005
:1008F000B9002808253E84000008FF3AB7003708F1
:100900008515B71F851185148510B70DB90B802C7F
:10091000A80A2808033A0319A8010C1005150408B1
:10092000F4007308840072088A00710E8300F00ED0
:10093000700E09002C30A200E730A3000B30A40099
:10094000A20BA32CA30BA52CA40BA02CA72C00005E
:1009500008008530A200A330A3000230A400A20B3F
:10096000B22CA30BB42CA40BA02CB62CB72C0800D3
:02400E00183F59
:00000001FF
